:020000040000FA
:10000000580A00206D0200008102000083020000F7
:10001000850200008502000085020000000000004B
:100020000000000000000000000000008502000049
:10003000850200000000000085020000850200002B
:100040008502000085020000850200008502000094
:100050008502000085020000850200008502000084
:100060008502000085020000850200008502000074
:100070008502000085020000850200008502000064
:100080008502000085020000850200008502000054
:100090008502000085020000850200008502000044
:1000A0008502000085020000850200008502000034
:1000B0008502000085020000850200008502000024
:1000C0008502000085020000850200008502000014
:1000D0008502000085020000850200008502000004
:1000E000850200008502000000000000850200007B
:1000F00085020000850200008502000085020000E4
:1001000085020000850200008502000085020000D3
:1001100000000000000000008502000085020000D1
:1001200085020000850200008502000085020000B3
:1001300085020000850200008502000085020000A3
:1001400000000000000000000000000000000000AF
:100150008502000085020000850200008502000083
:10016000000000000000000000000000000000008F
:10017000000000000000000000000000000000007F
:10018000000000000000000000000000000000006F
:10019000000000000000000000000000000000005F
:1001A000000000000000000000000000000000004F
:1001B0008502000085020000850200008502000023
:1001C0008502000085020000850200008502000013
:1001D0008502000085020000850200008502000003
:1001E000850200008502000085020000000000007A
:1001F000000000008502000085020000850200006A
:1002000085020000850200000000000000000000E0
:1002100085020000850200008502000085020000C2
:1002200085020000850200008502000085020000B2
:1002300085020000850200008502000085020000A2
:100240008502000085020000850200008502000092
:100250008502000085020000850200008502000082
:100260008502000085020000850200004EF68850DD
:10027000CEF20000016841F47001016000F004B8A2
:10028000FEE7FEE7FEE70000DFF80CD000F062F9C1
:100290000048004755180000580A00200138FDD1D9
:1002A00070470000EFF3108072B67047EFF31080D4
:1002B0007047EFF3108062B6704730BF704780F32D
:1002C00011887047EFF3118070472DE9FE4F81EAE6
:1002D000030404F0004421F0004100944FF0000BAF
:1002E00023F0004350EA010402D052EA030404D18F
:1002F0000020014603B0BDE8F08FC3F30A54C1F3F8
:100300000A552C44A4F2F3340194A0FB0254C1F327
:10031000130141F48011C3F3130343F4801301FB71
:10032000024400FB034E840A970A44EA815447EAD8
:100330008357A4FB076802958D0A05FB07854FEAE2
:10034000932C04FB0C542705029D4FEA065847EAFC
:100350001637B5EB08056EEB070C870E920E47EAD1
:10036000811742EA8312A7FB0201B6EB0B0164EB93
:1003700000042B0D43EA0C335E1844EB1C50DA46A4
:100380005146E7FB0201C5F313044FEA0B3343EA7E
:1003900014534FEA0432019C43EA0603A4F10C040F
:1003A0000294009CCDE900B400F082F8A2E700F0CE
:1003B000004230F000400AD0C10D01F56071C0F379
:1003C000160042EA0151C20840071143704700205D
:1003D0000146704701F0004330B421F0004150EA7B
:1003E000010206D00A0DA2F56072C1F31301002AC2
:1003F00002DC30BC00207047440F44EAC104C10055
:10040000E01830BC00EBC25000F00FB8202A04DB2B
:10041000203A00FA02F1002070479140C2F1200317
:1004200020FA03F31943904070470029A8BF704792
:10043000401C490008BF20F00100704710B4B0FA1A
:1004400080FC00FA0CF050EA010404BF10BC7047B5
:1004500049B1CCF1200421FA04F411FA0CF118BFCF
:10046000012121430843A3EB0C01CB1D0106000A27
:10047000002BBEBF002010BC704700EBC3501044DF
:100480000029A4BF10BC7047401C490008BF20F0E1
:10049000010010BC704710B5002B08DA401C41F178
:1004A000000192185B411A4301D120F0010010BDF8
:1004B0002DE9F04D92469B4611B1B1FA81F202E06E
:1004C000B0FA80F220329046FFF7A0FF04460F46B4
:1004D00040EA0A0041EA0B0153465A46084303D159
:1004E00020463946BDE8F08D114653EA010015D08B
:1004F000C8F14002504600F03FF805460E4650460F
:1005000059464246FFF782FF084301D0012000E030
:100510000020054346EAE0762C4337430A984FEA29
:100520004453A0EB08004FEAD4240A304FF00002F5
:1005300044EA47544FEAD72502D500200146D1E7C7
:10054000010510196941DDE9084500196941BDE857
:10055000F04DA0E7064C074D06E0E06840F00103CF
:1005600094E8070098471034AC42F6D3FFF790FEAA
:100570001C1E00003C1E0000202A04DB203A21FA49
:1005800002F00021704721FA02F3D040C2F12002AC
:10059000914008431946704730B58C1810F8012B6C
:1005A00012F00F0301D110F8013B120906D110F827
:1005B000012B03E010F8015B01F8015B5B1EF9D130
:1005C00001E001F8013B521EFBD1A142E6D300201D
:1005D00030BD0000F7EE002A9FED0C2AC0ED002A86
:1005E00080ED012A80ED022A80ED032AC0ED042A65
:1005F00080ED052A80ED062A80ED072AC0ED082A45
:1006000000F1240181EC040A7047000000000000A2
:1006100010B50F4801F074F80E4801F071F8012090
:1006200000F034F940F2014000F030F903214FF0BE
:10063000402000F079F9094C60234FF4E13206497B
:10064000204601F0B7F82046BDE8104001F0E9B8B7
:10065000000800F0001800F000B4C40400C000401E
:10066000D0F8003412F0010F14BF0B438B43C0F8D5
:10067000003412F0020FD0F8202414BF114322EAF4
:100680000101C0F820147047C0F81C14704700F531
:100690008262D0F81004084310607047124A10B507
:1006A000104B12684FF0180C104C2240A2F18054ED
:1006B000B4F5202408BF0E4B002253F83240844288
:1006C00003D103EBC200446803E0521C6245F4D33B
:1006D0000024204600F0B4FC2046BDE8104000F0A5
:1006E00029BC0000601A000000E00F400000FF700D
:1006F000201B0000002914BFD0F81804D0F81404FF
:100700007047D0F8083412F0010F14BF0B438B432D
:10071000C0F80834D0F8043412F0020F14BF0B43B1
:100720008B43C0F80434D0F80C3412F0040F14BF1B
:10073000194323EA0101C0F80C14D0F8381512F45B
:10074000803F14BF41F0010121F00101C0F83815CC
:1007500070472DE9F00701274FF0000C0326C2F384
:10076000411800F6C47407FA0CF50D4210D0D0F809
:10077000C49F4FEA4C0506FA05FA29EA0A09C4F8AB
:100780000090D4F8009008FA05F549EA05052560BF
:100790000CF1010C0CF0FF0CBCF1080FE3D3D0F806
:1007A00000C512F0010F14BF4CEA010C2CEA010C39
:1007B000C0F800C5D0F804C512F0020F14BF4CEA0F
:1007C000010C2CEA010CC0F804C5D0F808C512F0E1
:1007D000040F14BF4CEA010C2CEA010CC0F808C548
:1007E000D0F818C512F0080F14BF4CEA010C2CEA1F
:1007F000010CC0F818C512F0100FD0F83C2514BF3A
:100800000A438A43C0F83C25D0F80C2513F0010FA9
:1008100014BF0A438A43C0F80C25D0F8102513F002
:10082000020F14BF0A438A43C0F81025D0F81425DC
:1008300013F0040F14BF0A438A43C0F81425D0F8FC
:100840001C2513F0080F14BF0A438A43C0F81C2567
:10085000D0F8442513F4007F14BF0A438A43C0F83C
:100860004425D0F8402513F4407F14BF0A438A433F
:10087000C0F84025D0F82825002B0CBF114322EAF0
:100880000101C0F82815BDE8F00770470F4AC0F312
:100890000741D26E01238B401A420D4A1ABF02EB68
:1008A000C1014A6852F83120C0F3072102F22C53EB
:1008B000D2F82C254FF00F0C0CFA01FC00F00F00C1
:1008C00022EA0C02884010431860704700E00F4095
:1008D000E01B000030B50C4605460022FFF7C0FEC5
:1008E00021462846BDE8304008230122FFF731BFEA
:1008F00030B50C4605460222FFF7B2FE21462846D7
:10090000BDE8304009230122FFF723BF30B50C4674
:1009100005460222FFF7A4FE21462846BDE83040E6
:1009200008230122FFF715BF30B50C460546022209
:10093000FFF796FE21462846BDE8304008230122F5
:10094000FFF707BF144A10B5124B12684FF0060CA0
:10095000124C2240A2F18054B4F5202404BF104B65
:100960004FF00A0C0022BCF1000F0ADD53F83240B0
:10097000844203D103EBC200446803E0521C624589
:10098000F4DB0024204600F05BFB2046BDE810406D
:1009900000F0D0BA701C000000E00F400000FF70B3
:1009A000A01C00002DE9FF5F0446DDE91076DDE9BB
:1009B0000E8BDDE912A9007900F00AFB002808BFC0
:1009C000002503D00125207900F082FA607A411CCD
:1009D0000A2908BF0021227A8A4208D1002D1CBFB3
:1009E000207900F0A7FA002004B0BDE8F09FC0EB2A
:1009F000C00004EB8000019A0273029A0261039A1C
:100A00008282A0F81680C0F818B08783C683C0E938
:100A100008A96172E079002804BF207900F02AFB60
:100A2000002D1CBF207900F085FA012004B0BDE83C
:100A3000F09F70B50D46DDE904C105600271437198
:100A400080F806C00023C37103721446437201226A
:100A5000284600F007FA204600F06CFA2846BDE868
:100A60007040012100F02CBA2DE9F04105460068E4
:100A700000F022FA28684668297A16F0120FC1EBB6
:100A8000C10105EB810101F10C044FF00A071CBF05
:100A9000E979002906D016F0400F1CBF042100F0B0
:100AA000DAF9EF71E8790B28FCD2DFE800F0064EA6
:100AB0006E8DC0CFDEF4F3F2F100287A697A8842B5
:100AC00008BFBDE8F081208921780028286826D059
:100AD000002200F0F9F960680178286800F0BFF999
:100AE000208901280AD00321286800F0B4F90120E8
:100AF00068812089022818BF012043E0208A00284D
:100B0000286806D0032100F0A6F9208A012877D0B2
:100B100080E0072100F09FF9EF71BDE8F08101222C
:100B200000F0D2F900206881208A0128286807D0C7
:100B30000B2100F090F9208A02286ED0062021E0D7
:100B4000072100F088F909201CE068896189884242
:100B500005D10320E871626912BBBDE8F0816168CC
:100B6000095C286800F07BF968890121401C6881D4
:100B7000286800F070F920896989401A01283DD061
:100B8000BDE8F081E871BDE8F0816889618988423B
:100B90000BD10320E8716269002A08BFBDE8F0812B
:100BA0000521A069BDE8F04110476168095C28682B
:100BB00000F055F9208A78B30121286800F04BF93C
:100BC000208A012831D025E020896189401A2081BE
:100BD00060680178286800F042F901266E8120895A
:100BE00001280ED00121286800F035F92089698993
:100BF000401A01281CBFEE71BDE8F0810220C1E758
:100C000013E0208A40B10121286800F024F9208AED
:100C100001280AD00520B5E700E046E00521286854
:100C200000F019F9EF71BDE8F0810420AAE72178FE
:100C30000122286800F048F90721286800F00BF924
:100C4000002068810920E871BDE8F0812178012247
:100C5000286800F039F90B21286800F0FCF8002022
:100C60006881208A022820D068E7286800F0F5F81B
:100C70006A89E16888546889401C80B26881618A09
:100C8000884209D10820E871626912BBBDE8F08191
:100C900045E03CE022E00AE00921286800F0DBF8AA
:100CA000208A6989401A0228F0D107206AE728685B
:100CB00000F0D3F86A89E16888546889401C80B2E2
:100CC0006881618A88421CD10820E8716269002A23
:100CD000DCD0A069BDE8F04106211047208A618A76
:100CE000401A208200206881208A012809D0092129
:100CF000286800F0B0F8208A6989401A0228D4D008
:100D00001CE70521286800F0A6F809203AE72868C2
:100D100000F0A3F86A89E1688854EF71C2E6D4E96B
:100D20000523287A401CC0B228720A2804BF00217B
:100D300029725AB116F0120F08BF002104D016F024
:100D4000100F18BF032111D0184690470021E971F8
:100D500016F0120F18BF16F0400F97D1287AC0EB8B
:100D6000C00005EB800000F10C049BE616F0040FB8
:100D700018BF0121E8D116F0080F14BF0221042189
:100D8000E2E730B587B00025DDE90A4CCDF814C0A4
:100D90000295CDE90354CDE90035FFF703FE07B016
:100DA00030BD0000F0B587B00C46DDE90C1CDDE974
:100DB0000E564F1C8760ACF101070460C780C0E984
:100DC0000356037109784171DFF828C000250590AA
:100DD00002952646CDE9035C1146021D0224BB1C88
:100DE0003046CDE90045FFF7DDFD002818BF0120A2
:100DF00007B0F0BDF90D0000052905D0C268002A32
:100E000008BF704700691047816809780171C1887F
:100E1000012902D98168497841718168891C816002
:100E2000C188891EC18050F8041BCA79032A0BD0DF
:100E3000082A18BF70470A7AC2EBC20201EB82028D
:100E40009061087900F016B90A7AC2EBC20201EB90
:100E500082021061F5E741607047806870478160E9
:100E600070470000036A43F010030362002A14BFB6
:100E70000E4A0F4A02EB820301EB830302EB82026C
:100E80005B1E9200B3FBF2F2521EC260D0F8C02F7C
:100E900012F0010F08BF7047064A1144521CB1FB03
:100EA000F2F1491E41F08001C1607047801A0600CE
:100EB000A08601007F4737010121C1618161704730
:100EC000026911430161704742EA410101607047C4
:100ED0001649042804BF086820F4803018D005287B
:100EE00004BF086820F4003012D0062812D00F2862
:100EF00015D0102838BF7047103800F01F010122AC
:100F000002FA01F142090A4850F8220001607047D4
:100F100008607047086820F48020086070474FF030
:100F2000E020016921F002010161704724ED00E039
:100F3000C01D00001649042804BF086840F4803032
:100F400018D0052804BF086840F4003012D00628E5
:100F500012D00F2815D0102838BF7047103800F075
:100F60001F01012202FA01F142090A4850F8220049
:100F70000160704708607047086840F4802008608E
:100F800070474FF0E020016941F0020101617047B4
:100F900024ED00E0AC1D000070B50A4D012128468B
:100FA000FFF7A8FB044601462846FFF76DFB6007E4
:100FB00006D5BDE87040044A0449104600F058BA0E
:100FC00070BD00000050004090070020811000001C
:100FD0000021154A042804BF106800F480311BD09A
:100FE000052804BF106800F4003115D0062804BF9E
:100FF000106800F480210FD00F280FD010280BD3D9
:1010000010380A4A410952F82110096800F01F00FF
:10101000012202FA00F00140084670474FF0E0203C
:10102000006900F00201F7E724ED00E0AC1D0000CC
:1010300010B5FFF73EF9002818BF012010BD0000D1
:1010400030B40A4D2A680A4B9A421CBFD5F800C03A
:10105000002207D05CF8224043F82240521C9B2A11
:10106000F8D32B6043F8201030BC704708ED00E047
:1010700000040020014910380860704700EF00E0CC
:10108000024809B901220260416070470000002057
:101090000548016811B941680029FAD0416801B1D9
:1010A000FEE700210160704700000020F0B50D0050
:1010B00087B004464FF0000106D0012D06BF94F81A
:1010C0003100062884F8311094F831000C2807D23A
:1010D000DFE800F0060606CBE00A20586B7E91ADF3
:1010E00084F8311000F0CBB86B2084F8580094F8E5
:1010F0003010206801237A4D05940293CDE9033521
:1011000004F1360CCDE9003C04F15802FFF74AFC2B
:10111000062017E094F83600402817D1012D15D08D
:101120006B2084F85800012084F859006C48CDE900
:10113000000494F83010022304F158022068FFF7ED
:1011400020FE072084F8310007B0F0BD6B2084F842
:10115000580094F830702068012361490594029387
:10116000CDE9033104F1360CCDE9003C04F158021D
:101170003946FFF717FC94F8310000281CBF07B070
:10118000F0BD7CE06A2084F85800202084F85900E3
:101190005348CDE9000494F83010022304F15802BA
:1011A0002068FFF7EEFD0820CCE7192084F85800EE
:1011B000132084F859004A48CDE9000494F830100F
:1011C000022304F158022068FFF7DBFD0920B9E78C
:1011D000672084F85800112084F859004048CDE970
:1011E000000494F83010022304F158022068FFF73D
:1011F000C8FD0A20A6E7242084F858004D2084F872
:1012000059008C2084F85A00022084F85B00882062
:1012100084F85C003248CDE9000494F830100523CE
:1012200004F158022068FFF7ACFD0B208AE731205B
:1012300084F858000C2084F859000A2084F85A00D9
:10124000012584F85B50842084F85C002448CDE9B3
:10125000000494F83010052304F158022068FFF7C9
:1012600090FD84F8315007B0F0BD94F8330084F855
:10127000320094F8350084F8340084F83110226D7F
:10128000002A04BF07B0F0BD2946606D07B0BDE875
:10129000F040104794F85C006B280BD01B2818D046
:1012A0001C287FF41DAF94F85D00C0F3C10084F8E2
:1012B000320015E794F85D0010F0800F3FF410AF96
:1012C00084F8321084F8331084F8341084F8351020
:1012D00006E794F85D00C0F3C10084F83400FFE62F
:1012E000AD10000010B490F832C0184C04EB8C0C18
:1012F0009CED000A69B1B0F836C09CFA9CFC0FFA6C
:101300008CFC00EE90CAF8EEE00A60EE800AC1EDB7
:10131000000A52B1018F49BA09B200EE901AF8EEF4
:10132000E00A60EE800AC2ED000A002B04BF10BC88
:101330007047408F40BA00B200EE900AF8EEE00A23
:1013400020EE800A83ED000A10BC7047FC1D0000EF
:1013500010B490F834C01D4C04EB8C0C9CED000ACA
:1013600079B190F83EC090F83F4004EB0C2C0FFA96
:101370008CFC00EE90CAF8EEE00A60EE800AC1ED47
:10138000000A72B190F8401090F841C00CEB0121B6
:1013900009B200EE901AF8EEE00A60EE800AC2EDA3
:1013A000000A002B04BF10BC704790F8421090F860
:1013B000430000EB012000B200EE900AF8EEE00AD4
:1013C00020EE800A83ED000A10BC70470C1E00005E
:1013D0002DE9F0411D462DED028B16469FED228B27
:1013E0000F0000F1450410D0B4F9000000EE100A1F
:1013F000B8EEC00A10EE100AFEF7D9FF53EC182B16
:10140000FEF763FFFEF7E6FF386086B1B4F902002D
:1014100000EE100AB8EEC00A10EE100AFEF7C7FF81
:1014200053EC182BFEF751FFFEF7D4FF3060002D70
:1014300004BFBDEC028BBDE8F081B4F9040000EEFE
:10144000100AB8EEC00A10EE100AFEF7B0FF53EC17
:10145000182BFEF73AFFFEF7BDFF2860BDEC028BAC
:10146000BDE8F0810000000076830DF4F521943E84
:1014700070B5044690F8310086B000281EBF0020E9
:1014800006B070BD0C20C4E9141284F831003B2072
:1014900084F8580094F83010266816200C4D0594F6
:1014A0000290CDE90305012304F1360CCDE9003C9F
:1014B00004F158023046FFF775FA00281EBF0120DC
:1014C00006B070BD002084F8310006B070BD000089
:1014D000AD1000000148FFF7C7BA00006C060020FD
:1014E00030B583B00446DDF818C008462160D1B29B
:1014F00084F83010C4E9143C002584F8325084F894
:10150000335084F8345084F83550052284F8312063
:101510006B2284F85820802284F85920074ACDE9AC
:101520000024022304F15802FFF72BFC002806BF19
:1015300084F831500020012003B030BDAD10000010
:1015400070B5044684B09C46DDE9083094F831500B
:10155000002D1EBF002004B070BD0025C4E914306A
:10156000501801EB0C036B290AD86B2B08D910F823
:101570006B6C16F0800F1CBF84F8335084F8355024
:101580001B2907D81B2B05D910F81B6CC6F3C10605
:1015900084F835601C2907D81C2B05D910F81C0CC1
:1015A000C0F3C10084F83300032084F831000B48F5
:1015B000CDE9002CCDE9020420680B46014694F8E1
:1015C000302004F15800FFF7EDFB002806BF84F837
:1015D00031500020012004B070BD0000AD100000AB
:1015E000434B30B4196E1A6F21F4800141F400614D
:1015F00042F4006419661C6721EA000212F0010F30
:1016000014D060F0010211409A159A651966D3F85A
:1016100050C0D2021CF4807F08D1521E04BF30BCDF
:101620007047D3F850C01CF4807FF6D021F4FE61DF
:1016300000F4FE621143DFF8BCC024F0700222F017
:10164000004200EA0C0C4CEA020200F0080C42EAEC
:10165000CC0219661A6700F4005C21F4005122F4F0
:1016600000524CEA01014CEA02024FF0400CC3F870
:1016700058C012F0004F08BF19661A6718BF1966E4
:1016800021F00101DFF870C021F0F86100EA0C0CD4
:101690004CEA010122F0FC5200F0FC5C4CEA020230
:1016A00010F0804F08BF22F0804209D0DFF84CC014
:1016B00022F4800200EA0C0C41F480014CEA0202A0
:1016C00010F4006F08BF4FF400400AD1D3F868C18E
:1016D0001CF0010F01D1401EF8D121F4006122F469
:1016E000006219661A6730BC1020FEF7D7BD0000F3
:1016F00000E00F40300000800100C00700004040C3
:10170000C0F307230749C0B2194401F07043C1F385
:10171000130143EA411141EA800040F000700122C8
:101720000260704700E60F4010B4C26822F0010268
:1017300022F48072C2600A0E0260114A1268114BD4
:1017400002EA030CACF18054CBB2C1F30722B4F52A
:1017500020240DD14FF4704C0CEA1114234343F4B0
:10176000007343600CEA1121114341F4007104E05D
:1017700043F40071416042F40071816010BC704715
:1017800000E00F400000FF70C26840F201131940F2
:101790001143C160704711F0FF0F18BF826211F44E
:1017A0007F4F18BFC2627047826912F0200FFBD1D1
:1017B00001607047D0F818C01CF0080FFAD1D0F8BB
:1017C0002CC02CF0100CC0F82CC0D0F830C02CF07D
:1017D000010C2CF4407CC0F830C0D0F830C0B1EB24
:1017E000021F34BF4CF0200C2CF0200CC0F830C08D
:1017F00038BF5208C900B1FBF2F1491C49088A09F7
:10180000426201F03F018162C36200218161C16ACD
:1018100041F01001C162016B40F2013211430163DA
:101820007047C16A41F01001C162016B40F20132A0
:1018300011430163704702E008C8121F08C1002A63
:10184000FAD170477047002001E001C1121F002A41
:10185000FBD1704794B002AF05AE08AD6948FFF701
:10186000BFFE6948FFF74CFFFEF7D2FE6748FFF75F
:1018700047FF6548801CFFF743FF4FF00310FFF759
:1018800005F86348FFF702F8624C01212046FFF794
:101890003DF802212046FFF72BF85F4C042120463B
:1018A000FFF718F804212046FEF7F1FE002204217C
:1018B0002046FEF726FF59492046FEF7EFFE11208D
:1018C000FFF738FBFFF7B4FB564C55492046FFF7AE
:1018D00039F8DFF85481FF21CDE900180B46552275
:1018E00021465248FFF7A5F8514C524B68224F4908
:1018F00020460094FFF7F4FD4FF489714EA0FFF7E6
:10190000C7FB022084F836004FF0000A84F837A0A5
:101910004FF0010B84F838B0DFF81891CDE900944E
:1019200004F1360203231A2120461292FFF708FE23
:101930004FF4917140A0FFF7ABFBB02084F8360064
:1019400084F837B0CDE90094022337212046129A5B
:10195000FFF7F6FD4FF4997137A0FFF799FBDFED24
:10196000390A9FED391A9FED390AF0EE601A04F139
:101970006C00FEF72FFE3648FFF7C2FE354C2221E1
:101980002046FFF7D1FE4246FF212046FFF703FF26
:10199000FF212046FFF7F8FED146DFF8BC8007F1B3
:1019A00008002E4C06F1080B05F1080A0090D8F843
:1019B000001040460029FAD0C0F800903A1D394680
:1019C0001B48009BFFF78EFC5B46321D31461848D2
:1019D000FFF7BEFC53462A1D29461548FFF7F8FCC1
:1019E000FF212046FFF7E0FE0A212046FFF7DCFE3C
:1019F000FF212046FFF7D8FE0A212046FFF7D4FE3C
:101A0000D5E70000400500C1010800F0032000F008
:101A1000030403000070004000500040990F0000D4
:101A2000D51400000030024000B4C4046C0600204D
:101A30009007002081100000557365725C6D61692C
:101A40006E2E6300CDCC4C3ECDCC4C3F0AD7A33C90
:101A5000000400F0000003400000002000C000402F
:101A60000040004010000000008005401000000011
:101A700000500040110000000090054011000000DF
:101A8000006000401200000000A0054012000000AD
:101A9000007000401300000000B00540130000007B
:101AA000004002401400000000C005401400000087
:101AB000005002402E00000000D005402E00000023
:101AC000006002402F00000000E005402F000000F1
:101AD000007002403000000000F0054030000000BF
:101AE00000D0034046000000000006404600000011
:101AF000001006404700000000200640480000009B
:101B0000003006407F0000000040064080000000DA
:101B10000050064084000000006006408C00000079
:101B20000040004010000000008005401000000050
:101B3000005000401100000000900540110000001E
:101B4000006000401200000000A0054012000000EC
:101B5000007000401300000000B0054013000000BA
:101B6000004002401400000000C0054014000000C6
:101B7000005002402E00000000D005402E00000062
:101B8000006002402F00000000E005402F00000030
:101B9000007002403000000000F0054030000000FE
:101BA00000D0034043000000000006404300000056
:101BB00000100640440000000020064045000000E0
:101BC0000030064058000000004006405900000068
:101BD000005006405C000000006006406400000009
:101BE000004000400080054000500040009005404B
:101BF0000060004000A005400070004000B00540BB
:101C00000040024000C005400050024000D00540A6
:101C10000060024000E005400070024000F0054016
:101C200000D00340000006400010064000100640AF
:101C300000200640002006400030064000300640EC
:101C4000004006400040064000500640005006405C
:101C500000600640006006400070064000700640CC
:101C6000008006400080064000900640009006403C
:101C70000000024018000000001002403500000083
:101C800000200240540000000030024055000000D7
:101C900000000C407D00000000100C407E000000A1
:101CA0000000024018000000001002403500000053
:101CB000002002404D000000003002404E000000B5
:101CC00000000C405600000000100C4057000000BF
:101CD00000200C407600000000300C40770000002F
:101CE00000800B407D00000000900B407E00000053
:101CF00000070000000600000005000000040000CE
:101D000000030000000200000001000000000000CD
:101D10000000000018ED00E01CED00E020ED00E008
:101D200000E400E004E400E008E400E00CE400E08B
:101D300010E400E014E400E018E400E01CE400E03B
:101D400020E400E024E400E028E400E02CE400E0EB
:101D500030E400E034E400E038E400E03CE400E09B
:101D600040E400E044E400E048E400E04CE400E04B
:101D700050E400E054E400E058E400E05CE400E0FB
:101D800060E400E064E400E068E400E06CE400E0AB
:101D900070E400E074E400E078E400E07CE400E05B
:101DA00080E400E084E400E088E400E000E100E09A
:101DB00004E100E008E100E00CE100E010E100E0F7
:101DC00080E100E084E100E088E100E08CE100E0F7
:101DD00090E100E000E200E004E200E008E200E060
:101DE0000CE200E010E200E080E200E084E200E0CB
:101DF00088E200E08CE200E090E200E0E4E71C3AD8
:101E0000E4E79C3AE4E71C3BE4E79C3BFDB30B3979
:101E1000FDB38B39797D0B3A797D8B3A3C1E0000FE
:101E2000000000206C060000980500004C1E000019
:101E30006C060020EC0300004618000001FF01FFC3
:0C1E400001FF01FF01FF01FF017900001C
:040000050000026D88
:00000001FF
